111111111BRAD      NEW YORK  7894561123111111111000000000000000
222222222GREG      CHICAGO   9865848596222222222000000000000000
333333333CARRY     DENVER    1254152589333333333000000000000000
444444444JENNIFER  SAN JUAN  5245859658444444444000000000000000
555555555CATHERINE MOSCOW    8596584857555555555000000000000000
